S014000053414D4537305F464F4E54532E737265639A
S214400000782E4020D92D4000892E4000892E400071
S214400010892E4000892E4000892E400000000000B6
S214400020000000000000000000000000892E400094
S214400030892E400000000000892E4000892E400096
S214400040892E4000892E40009D064000250740002E
S214400050892E4000892E4000892E4000892E40007F
S214400060892E400000000000D9294000F1294000B8
S214400070092A4000892E4000892E4000892E4000E3
S214400080212A4000392A4000892E4000892E40000F
S214400090892E4000892E4000892E4000892E40003F
S2144000A0892E4000892E4000892E4000892E40002F
S2144000B0892E4000892E4000892E4000892E40001F
S2144000C0892E4000892E4000892E4000892E40000F
S2144000D0892E4000892E4000892E4000892E4000FF
S2144000E0892E4000892E4000892E4000892E4000EF
S2144000F0892E4000892E4000892E4000892E4000DF
S214400100892E4000892E4000892E4000892E4000CE
S214400110892E4000000000000000000000000000A3
S214400120892E4000892E4000892E4000892E4000AE
S214400130892E4000892E4000892E4000892E40009E
S214400140892E4000892E4000892E4000892E40008E
S214400150892E4000892E4000892E4000892E40007E
S214400160892E4000892E400010B5054C237833B9BF
S214400170044B13B10448AFF300800123237010BD35
S214400180B809402000000000BCF444000C4B43B1CA
S2144001900C480D4910B5AFF300800C48036823B9EE
S2144001A010BD0A48036833B97047094B002BF7D097
S2144001B0BDE810401847064B002BF5D0184700BF47
S2144001C000000000BCF44400BC094020BCF44400DD
S2144001D00000000080B483B000AF786039603B68B0
S2144001E0002B06D07B685B6843F001027B685A6050
S2144001F005E07B685B6823F001027B685A6000BFBD
S2144002000C37BD465DF8047B704780B483B000AFC2
S214400210786039607B683A681A6200BF0C37BD4622
S2144002205DF8047B704780B487B000AFF860B96073
S2144002307A603B60FB689B687B6102E0FB689B687A
S2144002407B61FB689A687B699A42F7D1BB68002B52
S2144002501CD07B691B0C03F03F033B613B691A09CA
S21440026013469B0013445B001A463B6903F00F039A
S2144002701A44BB681A607B6903F48003002B05D0E0
S214400280BB681B6803F10C02BB681A607B68002BD6
S21440029011D07B691B0A03F07F033B613B691A0957
S2144002A013469B0013445B001A463B6903F00F035A
S2144002B01A447B681A603B68002B10D07B6903F0B9
S2144002C07F033B613B691A0913469B0013445B005E
S2144002D01A463B6903F00F031A443B681A6000BF96
S2144002E01C37BD465DF8047B7047000080B487B07D
S2144002F000AFF860B9607A603B6000237B61FB68C2
S2144003005B6803F00103012B09D1BB680C2B06D9AF
S214400310BB680C3BBB607B6943F480037B61BB6876
S214400320334AA2FB0323DB081805B968304BA3FB0E
S2144003300123DA0813469B0013445B00CA1A1304D1
S21440034003437A6913437B617B68294AA2FB0323F4
S214400350DB0818037968264BA3FB0123DA0813460B
S2144003609B0013445B00CA1A130203437A69134383
S2144003707B613B681E4AA2FB0323DB0818013968F1
S2144003801B4BA3FB0123DA0813469B0013445B0078
S214400390CA1A40EA02037A6913437B61FB681B680A
S2144003A043F00102FB681A6000BFFB689B6903F0DC
S2144003B00103012BF9D1FB680122DA61FB687A69F7
S2144003C09A60FB681B6823F00102FB681A60FB68B2
S2144003D0DB6943F00402FB68DA61FB68DB6A03F022
S2144003E0010318461C37BD465DF8047B704700BFC6
S2144003F0CDCCCCCC80B487B000AFF860B9607A6022
S2144004003B6000237B61BB68464AA2FB03239B09F3
S2144004101801BB68444AA2FB03235909434BA3FB7C
S2144004200123DA0813469B0013445B00CA1A40EACD
S21440043002037A6913437B61BB683C4AA2FB0323F1
S214400440D9083A4BA3FB0123DA0813469B00134412
S2144004505B00CA1A1003B968344BA3FB0123DA08C1
S21440046013469B0013445B00CA1A130203437A697F
S21440047013437B617B682D4AA2FB0323DB081805E8
S21440048079682A4BA3FB0123DA0813469B001344E2
S2144004905B00CA1A130403437A6913437B613B6AC1
S2144004A05B057A6913437B613B68204AA2FB0323C2
S2144004B0DB08180739681D4BA3FB0123DA081346EF
S2144004C09B0013445B00CA1A130603437A6913431E
S2144004D07B61FB681B6843F00202FB681A6000BF42
S2144004E0FB689B6903F00103012BF9D1FB680122ED
S2144004F0DA61FB687A69DA60FB681B6823F00202FF
S214400500FB681A60FB68DB6943F00402FB68DA614B
S214400510FB68DB6A03F0020318461C37BD465DF8ED
S214400520047B7047D34D62101F85EB51CDCCCCCCAD
S21440053080B483B000AF78607B689B6918460C3700
S214400540BD465DF8047B704780B483B000AF7860EA
S21440055039607B683A68DA6100BF0C37BD465DF8A3
S214400560047B704780B485B000AF78607B689B683A
S214400570FB6002E07B689B68FB607B689A68FB6870
S2144005809A42F7D1FB6818461437BD465DF8047B9F
S214400590704780B483B000AF78607B68DB681846ED
S2144005A00C37BD465DF8047B7047000080B483B0CE
S2144005B000AF0346FB71094997F907305B09FA79A2
S2144005C002F01F02012000FA02F241F8232000BF89
S2144005D00C37BD465DF8047B704700BF00E100E085
S2144005E080B483B000AF0346FB71094997F90730E2
S2144005F05B09FA7902F01F02012000FA02F220336A
S21440060041F8232000BF0C37BD465DF8047B704799
S21440061000E100E080B483B000AF0346FB710949B7
S21440062097F907305B09FA7902F01F02012000FAB9
S21440063002F2603341F8232000BF0C37BD465DF818
S214400640047B704700E100E080B483B000AF03460F
S2144006503960FB7197F90730002B0BDA0D49FB79AF
S21440066003F00F03043B3A68D2B25201D2B20B44B5
S2144006701A7609E0084997F907303A68D2B252012B
S214400680D2B20B4483F8002300BF0C37BD465DF85A
S214400690047B704700ED00E000E100E090B585B0D7
S2144006A000AF3B4607F10802391D1A481A4CA047CE
S2144006B018481A4B9847F860FB6803F00403002B71
S2144006C003D004211348164B9847FB6803F00203F7
S2144006D0002B0BD03B683C2B04D100233B60BB680F
S2144006E00133BB6002210B480D4B98470121094856
S2144006F00B4B984708210748094B98471021054857
S214400700074B984720210348054B984700BF1437AE
S214400710BD4690BD60180E4027024000310540009F
S2144007204905400080B582B000AF0648064B984762
S21440073078600448054B9847386000BF0837BD4688
S21440074080BD00BF30180E40930540006505400050
S21440075090B583B002AF0220144B9847002114484E
S214400760144B98470C2300931323032240F2E27164
S2144007700F48114CA04700232D220F210C480F4C48
S214400780A04702200E4B984702200E4B9847002168
S21440079002200D4B984702200C4B984702210448F4
S2144007A00B4B984700BF0437BD4690BD152D400003
S2144007B060180E40D5014000F5034000ED024000B1
S2144007C0E10540001506400049064000AD054000E2
S2144007D00B02400098B500AF0D4B4FF4A0721A6064
S2144007E00B4B4FF4F0725A60094B0A4A9A60084B1A
S2144007F0084ADA600648084B984740F2DF1340F252
S2144008003F1200210020054CA04700BF98BD00BF06
S214400810400E4020FCFCFC0085124000D1144000F5
S21440082090B58BB002AFF860B9607A603B60BB6849
S214400830FB612EE0FB691B78FB76FB7EFA68127A3A
S2144008409B1A7B61FB685B7AFA7E9A421ED8FB68ED
S2144008505A687B69DB0013443B61786839683B69BA
S2144008605B685B681A463B695B689B681C463B69ED
S2144008705B681B68009323460A4CA0473B695B684D
S2144008805A683B6B13447A6813447B60FB690133B8
S214400890FB61FB691B78002BCCD100BF2437BD46DB
S2144008A090BD00BFAD15400090B599B002AF2E4B3D
S2144008B098472E4B98472E4B98472E4B98472E4B93
S2144008C01B78DBB21A4607F12C032C4918462C4BF2
S2144008D0984707F1200307F1240207F12801294829
S2144008E0294CA0473A6A3B4624491846244B984729
S2144008F0394601230093322332222448244CA04711
S214400900012300936423322222492348204CA047E7
S21440091002230093C8233222204921481C4CA0477A
S214400920154B1B78DBB207EE903AF8EEE76A97ED88
S214400930157AC6EE877AC7ED147A1A4B386D984703
S214400940194C07A3D3E90023A04703460C46194693
S2144009502246164B0846114698470346FB64B8E7BE
S214400960CDCCCCCCCCCCE43F51074000112240004B
S2144009704D1D4000D5074000D4094020ECF144000E
S214400980213A400060180E4027024000AC9E4000CE
S21440099021084000F0F144002467430000F2440080
S2144009A0E0F14400C93340007134400095384000BF
S2144009B080B483B000AF78607B68072B25D801A24F
S2144009C052F823F0E5094000EB094000F1094000E9
S2144009D0F7094000FB094000FF094000030A4000B9
S2144009E0070A40004FF4FA4310E04FF400430DE08E
S2144009F04FF400430AE0084B08E0084B06E0084B7B
S214400A0004E0074B02E0064B00E0002318460C3794
S214400A10BD465DF8047B704700093D0000127A0031
S214400A20001BB70080B500AF0620054B984702462E
S214400A3013469B0013449A001344184680BD00BFDB
S214400A40B109400080B500AF024B984703465B08AB
S214400A50184680BD250A400080B483B000AF786059
S214400A607B6880221A6000BF0C37BD465DF8047B69
S214400A70704780B483B000AF78607B685B6843F0B3
S214400A8001027B685A6000BF0C37BD465DF8047BA8
S214400A90704780B483B000AF78607B685B6823F0B3
S214400AA002027B685A6000BF0C37BD465DF8047B87
S214400AB0704780B483B000AF78607B685B6823F093
S214400AC004027B685A6000BF0C37BD465DF8047B65
S214400AD0704780B483B000AF78607B685B6803F093
S214400AE00403002B01D0012300E0002318460C37F6
S214400AF0BD465DF8047B704780B483B000AF786035
S214400B007B685B6843F010027B685A6000BF0C3716
S214400B10BD465DF8047B704780B483B000AF786014
S214400B207B685B6823F080027B685A6000BF0C37A6
S214400B30BD465DF8047B704780B483B000AF7860F4
S214400B400B467B807A887B68DA6000BF0C37BD46F0
S214400B505DF8047B704780B483B000AF78607B68F4
S214400B609B689BB218460C37BD465DF8047B7047C1
S214400B7080B483B000AF78607B681B6903F00203E3
S214400B80002B01D0012300E0002318460C37BD4659
S214400B905DF8047B704780B483B000AF78607B68B4
S214400BA01A6940F20123134040F20122934201D1D8
S214400BB0012300E0002318460C37BD465DF8047B51
S214400BC07047000080B582B000AF78600B46FB707F
S214400BD0FB789BB219467868024B984700BF0837A7
S214400BE0BD4680BD390B400080B582B000AF78600E
S214400BF039607868044B98470346DAB23B681A7007
S214400C0000BF0837BD4680BD570B400080B582B058
S214400C1000AF78607868104B984778680F4B9847D5
S214400C2078680F4B984778680E4B984778680E4B15
S214400C309847002178680D4B984778680C4B984742
S214400C4078680C4B9847002178680B4B984700BF54
S214400C500837BD4680BD00BFA5164000590A400073
S214400C60730A4000F90A4000190B4000E1164000A4
S214400C70930A4000B30A40001517400090B587B06D
S214400C8000AFF860B9603B601346FB71204B984755
S214400C900346194638681F4B98470346FB82BB6895
S214400CA0196800230022F8681B4CA047BB681B68E5
S214400CB008221946F868194B9847BB681B68FA8A99
S214400CC0D2B21946F868164B9847BB681B6808228C
S214400CD01946F868134B9847BB681968FB795B0858
S214400CE0DBB21A46F868104B9847BB681968FB7920
S214400CF003F00103002B0CBF01230023DBB21A468E
S214400D00F8680A4B984700BF1C37BD4690BD00BFE9
S214400D10450A400055194000EF1940000B194000A5
S214400D209119400065184000C5174000151840004E
S214400D3080B582B000AF786039607868104B9847CD
S214400D400346002B0AD03B681B680F2B14D83B6821
S214400D501B68194678680B4B98470DE03B681B6844
S214400D60032B09D83B681B68012202FA03F3DB43D6
S214400D7019467868034B984700BF0837BD4680BD84
S214400D80D30A4000E116400080B588B000AFF86056
S214400D90B9607A6043F69823FB610023BB6121E08B
S214400DA043F69823FB6107E0FB695A1EFA61002B65
S214400DB002D16FF0020319E0F8680E4B98470346DD
S214400DC0002BF1D0BA68BB6913441B78FB75FB7DDA
S214400DD01946F868084B9847BB690133BB617B6886
S214400DE0013B7B607B68002BDAD100231846203716
S214400DF0BD4680BD710B4000C50B400080B588B035
S214400E0000AFF860B9607A6043F69823FB61002330
S214400E10BB6138E043F69823FB6107E0FB695A1E46
S214400E20FA61002B02D16FF0020330E0F8681A4BEB
S214400E3098470346002BF1D0FF21F868174B984798
S214400E4043F69823FB6107E0FB695A1EFA61002BC4
S214400E5002D16FF002031AE0F868114B9847034638
S214400E60002BF1D007F117031946F8680D4B984749
S214400E70BA68BB691344FA7D1A70BB690133BB611B
S214400E807B68013B7B607B68002BC3D10023184600
S214400E902037BD4680BD00BF710B4000C50B4000EB
S214400EA0970B4000E90B400080B483B000AF7860F9
S214400EB07B6801221A6000BF0C37BD465DF8047B94
S214400EC0704780B483B000AF786039607B683A681A
S214400ED05A6100BF0C37BD465DF8047B7047000082
S214400EE090B583B000AF06200A4B984700230322F4
S214400EF02C210948094CA04700237B6002E07B6810
S214400F0001337B607B68FE2BF9D900BF0C37BD46AA
S214400F1090BD00BF1D2740000080004045174000A0
S214400F2080B584B000AF786039600620094B98479A
S214400F303A6879680848094B98470023FB6002E006
S214400F40FB680133FB60FB68FE2BF9D900BF103706
S214400F50BD4680BDED26400000800040890D400023
S214400F6090B587B000AF0346B9607A60FB73062041
S214400F70144B9847FB7B99B2002303221248134C2C
S214400F80A04700237B6102E07B6901337B617B697C
S214400F90FE2BF9D97B68002B10D006200C4B9847C7
S214400FA07A68B96808480B4B984700237B6102E093
S214400FB07B6901337B617B695E2BF9D900BF1C37A7
S214400FC0BD4690BD1D2740000080004045174000AC
S214400FD0ED264000890D400080B584B000AF002368
S214400FE0BB608123BB7000237B700323FB6048E01B
S214400FF0BB1C01221946FB20264B9847BB78013381
S214401000DBB2BB7000237B6002E07B6801337B6011
S2144010107B68FE2BF9D900220021D3201D4B984730
S21440102006201D4B9847FB1C012219461B481C4BAB
S214401030984700237B6002E07B6801337B607B68D7
S214401040FE2BF9D9FB781A46FB68013BDB0002FA17
S21440105003F31A46BB681343BB607B1C0122194648
S214401060FB200C4B984700237B6002E07B680133F3
S2144010707B607B6840F6FE729342F7D9FB68013B83
S214401080FB60FB68002BB3D1BB6818461037BD46E3
S21440109080BD00BF610F4000ED264000008000404C
S2144010A0FD0D400080B485B000AF78600023FB6043
S2144010B00CE00023FB6002E0FB680133FB60FB684A
S2144010C0074A9342F8D9FB680133FB60FA687B68AD
S2144010D09A42EED300BF1437BD465DF8047B704796
S2144010E09F86010080B487B000AFF860B9607A6030
S2144010F03B60FB681B68B3F5A07F03D3FB6840F2F8
S2144011003F121A607B681B68B3F5A07F03D37B68E9
S21440111040F23F121A60BB681B68B3F5F07F03D3FA
S214401120BB6840F2DF121A603B681B68B3F5F07F7D
S21440113003D33B6840F2DF121A60FB681A687B688C
S2144011401B689A4209D9FB681B687B617B681A68F2
S214401150FB681A607B687A691A60BB681A683B68E5
S2144011601B689A4209D9BB681B687B613B681A6852
S214401170BB681A603B687A691A6000BF1C37BD4678
S2144011805DF8047B7047000080B584B000AF03462E
S214401190FB71FB79002B02D0E823FB7301E0482368
S2144011A0FB7307F10F03012219463620024B98477E
S2144011B000BF1037BD4680BD610F400090B587B078
S2144011C000AF0446084611461A462346FB800346AF
S2144011D0BB800B467B8013463B8000237B61042309
S2144011E07B61FB887B827A88FB8813449BB2013BF9
S2144011F09BB23B82BB88FB813A88BB8813449BB238
S214401200013B9BB2BB8107F112035B783B7207F14F
S21440121012031B787B7207F110035B78BB7207F1F1
S21440122010031B78FB7207F108037A6919462A20D7
S214401230134B9847002200210020114B984707F196
S2144012400E035B783B7207F10E031B787B7207F147
S2144012500C035B78BB7207F10C031B78FB7207F13B
S21440126008037A6919462B20054B9847002200212F
S2144012700020034B984700BF1C37BD4690BD00BFBB
S214401280610F400090B589B002AF78600323FB60E1
S2144012904348444B984707F10C0100230093424BC8
S2144012A003223F48414CA047002203213C48404B84
S2144012B0984707F10C03194639483E4B984738483B
S2144012C03D4B9847012136483C4B98470022002129
S2144012D001203B4B9847C8203A4B984700220021B4
S2144012E01120374B9847C820364B9847364B98477F
S2144012F078617B6949F28842934201D001234AE0F3
S2144013004823FB7407F113030122194636202C4B61
S214401310984764202B4B98470423FB7407F113032C
S21440132001221946CF20264B98476420254B9847E4
S2144013300623FB7407F11303012219463A20204B7B
S214401340984764201F4B98470022002113201C4BCF
S214401350984764201B4B98471C4B98476420194B72
S214401360984700201A4B98476420164B98477B684E
S2144013701B689AB27B685B689BB200210020154CC4
S214401380A0477B689B681846134B9847002100206F
S214401390124B9847002318461C37BD4690BD00BFE9
S2144013A0008000400D0C4000002D31017D0C4000B7
S2144013B065184000310D4000A90E4000C30E4000A5
S2144013C0610F4000A5104000D90F4000E1134000D7
S2144013D089114000BD114000F91340004D144000F3
S2144013E080B500AF002200212920024B984700BF5D
S2144013F080BD00BF610F400080B485B000AF78600C
S2144014000023FB6016E0FB685A1CFA607A68120CF0
S214401410D1B20D4AD154FB685A1CFA607A68120A57
S214401420D1B2094AD154FB685A1CFA607A68D1B2E4
S214401430054AD154FB68B3F5707FE4D300BF143738
S214401440BD465DF8047B7047D809402080B584B01F
S21440145000AF03460A46FB801346BB800023FB6072
S2144014600423FB60BB1D5B783B72BB1D1B787B7205
S214401470BB1D5B78BB72BB1D1B78FB7207F1080374
S214401480FA6819462A20114B98470022002100206E
S2144014900E4B98473B1D5B783B723B1D1B787B721F
S2144014A03B1D5B78BB723B1D1B78FB7207F1080344
S2144014B0FA6819462B20054B984700220021002049
S2144014C0024B984700BF1037BD4680BD610F4000B5
S2144014D090B587B000AFF860B9607A603B603B4635
S2144014E03A1D07F1080107F10C002A4CA047FB689B
S2144014F098B2BB6899B27B689AB2FB689BB2D31A23
S2144015009BB201339CB23B689AB2BB689BB2D31A7B
S2144015109BB201339BB222461F4CA0471F4B9847B5
S2144015207A68FB68D31A01333968BA688A1A013276
S21440153002FB03F33B613B69194AA2FB03231B0AE8
S2144015407B6104E04FF470711648174B98477B69EF
S2144015505A1E7A61002BF5D13969114BA3FB012342
S2144015601A0A13469B0013449B01CA1A13465B0093
S214401570134419460B480C4B98474FF4F0734FF4FE
S214401580A07200210020044CA04700BF1C37BD4677
S21440159090BD00BFE5104000BD114000E10E400088
S2144015A0CDCCCCCCD8094020210F400090B58BB094
S2144015B000AFF860B9607A603B60FB683B62BB682E
S2144015C0FB61FA687B681344013BBB61BA683B68C1
S2144015D01344013B7B6107F1140307F1180207F13E
S2144015E01C0107F120001B4CA0473B6A98B2FB69E0
S2144015F099B2BB699AB23B6A9BB2D31A9BB201338B
S2144016009CB27B699AB2FB699BB2D31A9BB20133F8
S2144016109BB22246104CA047BA693B6AD31A7969F6
S214401620FA698A1A02FB03F37B627A6A13465B0006
S21440163013441A46B96B2C20084B98474FF4F07366
S2144016404FF4A07200210020034CA04700BF2C3767
S214401650BD4690BDE5104000BD114000610F400002
S21440166080B483B000AF78607B685B6803F00203A9
S214401670002B01D0012300E0002318460C37BD465E
S2144016805DF8047B7047000080B582B000AF78609C
S2144016907868034B984700BF0837BD4680BD00BFFB
S2144016A0152D400080B582B000AF78607B68094A4F
S2144016B0934203D11520084B984706E07B68074ABB
S2144016C0934202D12A20044B984700BF0837BD46B4
S2144016D080BD00BF00800040891640000080054065
S2144016E080B483B000AF786039607B685B6823F471
S2144016F070227B685A607B685A683B681B0403F418
S21440170070231A437B685A6000BF0C37BD465DF8AD
S214401710047B704780B483B000AF786039607B68E4
S2144017205B6823F07F427B685A607B685A683B68F8
S2144017301B061A437B685A6000BF0C37BD465DF8EF
S214401740047B704780B584B000AF78600846114689
S2144017501A4603467B800B467B7013463B7043F627
S2144017609823FB6006E0FB685A1EFA60002B01D106
S214401770012320E07B681B6903F00203002BF2D0B4
S21440178078680F4B98470346002B0ED07A887B78B4
S2144017901B0403F470231343BB603B78002B06D036
S2144017A0BB6843F08073BB6001E07B88BB607B68AE
S2144017B0BA68DA60002318461037BD4680BD00BFC1
S2144017C06116400080B485B000AFF860B9607A60BA
S2144017D07B68002B0CD0FB68BA680C3253F822307A
S2144017E043F00101FB68BA680C3243F822100BE064
S2144017F0FB68BA680C3253F8223023F00101FB68CC
S214401800BA680C3243F8221000BF1437BD465DF864
S214401810047B704780B485B000AFF860B9607A60EA
S2144018207B68002B0CD0FB68BA680C3253F8223029
S21440183043F00201FB68BA680C3243F822100BE012
S214401840FB68BA680C3253F8223023F00201FB687A
S214401850BA680C3243F8221000BF1437BD465DF814
S214401860047B704780B485B000AFF860B9607A609A
S2144018707B68042B18D1FB68BA680C3253F82230C8
S21440188023F00801FB68BA680C3243F82210FB6864
S214401890BA680C3253F8223043F00401FB68BA6849
S2144018A00C3243F822102AE07B68002B18D1FB68E4
S2144018B0BA680C3253F8223023F00801FB68BA6845
S2144018C00C3243F82210FB68BA680C3253F82230C8
S2144018D023F00401FB68BA680C3243F822100EE08D
S2144018E07B68082B0BD1FB68BA680C3253F8223061
S2144018F043F00801FB68BA680C3243F8221000BF78
S2144019001437BD465DF8047B704780B485B000AFA1
S214401910F860B9607A60FB68BA680C3253F82230D7
S21440192023F0F001FB68BA680C3243F82210FB68DB
S214401930BA680C3253F822207B6842EA0301FB68FF
S214401940BA680C3243F8221000BF1437BD465DF823
S214401950047B704780B485B000AF786039603A68E1
S2144019607B6813445A1E7B68B2FBF3F3FB60FB684C
S214401970002B02DDFB68FF2B02DD4FF0FF3301E05A
S214401980FB681BB218461437BD465DF8047B7047AB
S21440199080B485B000AFF860B9601346FB71FB7940
S2144019A0002B02D14FF0FF331BE0FB68BA680C32C5
S2144019B053F8223023F47F41FB68BA680C3243F870
S2144019C02210FB68BA680C3253F82220FB791B02BF
S2144019D09BB242EA0301FB68BA680C3243F8221015
S2144019E0002318461437BD465DF8047B704780B424
S2144019F085B000AFF860B96011461A460B46FB71D9
S214401A001346BB71FB68BA680C3253F8223099B261
S214401A10FB68BA680C3243F82210FB68BA680C328E
S214401A2053F82220FB791B0403F47F03B979090697
S214401A300B4342EA0301FB68BA680C3243F82210B3
S214401A4000BF1437BD465DF8047B704780B582B052
S214401A5000AF78607B68072B31D801A252F823F09C
S214401A60BD1A4000811A4000891A4000911A400071
S214401A70991A4000A11A4000A91A4000B31A400023
S214401A800020114B98471AE001200F4B984716E06C
S214401A9000200E4B984712E010200C4B98470EE063
S214401AA020200A4B98470AE03E210020084B9847E2
S214401AB005E03E210120064B984700E000BF00BFEE
S214401AC00837BD4680BD00BF512B4000BD2B4000AF
S214401AD02D2C400080B582B000AF78607B68072B25
S214401AE026D801A252F823F0091B40000D1B4000E7
S214401AF00D1B40001F1B40001F1B40001F1B4000CB
S214401B001F1B40001F1B4000012312E00B4B984751
S214401B100346002B14BF01230023DBB209E0084B29
S214401B2098470346002B14BF01230023DBB200E096
S214401B30002318460837BD4680BD00BF892B4000AD
S214401B40A52C400080B483B000AF78607B68072B3C
S214401B5025D801A252F823F0791B40007F1B400095
S214401B60851B40008B1B40008F1B4000931B400092
S214401B70971B40009B1B40004FF4FA4310E04FF485
S214401B8000430DE04FF400430AE0084B08E0084BE2
S214401B9006E0084B04E0074B02E0064B00E000235B
S214401BA018460C37BD465DF8047B704700093D007B
S214401BB000127A00001BB70080B582B000AF034623
S214401BC0FB7100BFFB791846054B9847034683F0E8
S214401BD00103DBB2002BF5D100BF0837BD4680BD00
S214401BE0D51A400080B586B000AFF8607A603B609A
S214401BF00B46FB727B68002B07D13B68002B04D159
S214401C00FB684FF470021A6019E0FB7A18460E4BD8
S214401C10984702467B68B2FBF3F37B617B693A6880
S214401C2002FB03F37B613B68013B1A04074B1340FE
S214401C307A68D2B2134343F47C52FB681A6000BF02
S214401C401837BD4680BD00BF451B40000000FF075B
S214401C5080B582B000AF786039603B68002B08D111
S214401C60094B9847094A7B681B6843F000539362C8
S214401C7005E0064A7B681B6843F48033D36100BFA7
S214401C800837BD4680BD00BFC12C400000060E4050
S214401C9080B582B000AF78607B68002B03D1054BDF
S214401CA09847034602E0044B9847034618460837D1
S214401CB0BD4680BDDD2C4000F92C400080B582B08A
S214401CC000AF0346FB71FB79033B042B08D8FB7936
S214401CD01846064B9847FB791846054B984700E050
S214401CE000BF00BF0837BD4680BD00BF4D1A40004C
S214401CF0B91B400080B582B000AF786000BF7868FE
S214401D00044B98470346002BF9D000231846083763
S214401D10BD4680BD911C400080B500AF0620054BF7
S214401D209847024613469B0013449A0013441846AD
S214401D3080BD00BF451B400080B500AF024B9847B2
S214401D400346184680BD00BF191D400090B583B0BD
S214401D5000AF1348134B98470620134B9847381D3F
S214401D60192301220621114CA0473B1D002118468D
S214401D700F4B984700200F4B984702200E4B984732
S214401D8000200E4B98470E4B98470E4B98470346FD
S214401D901846044B984700BF0C37BD4690BD00BF61
S214401DA0000E2707F92F4000BD1C4000E51B4000F1
S214401DB0511C4000F51C4000512A4000CD2A4000EE
S214401DC0912E4000391D400080B400AFBFF34F8FC6
S214401DD0BFF36F8F094B0022C3F85022074A074BC8
S214401DE05B6943F400335361BFF34F8FBFF36F8F8C
S214401DF000BFBD465DF8047B704700BF00ED00E0C5
S214401E0080B48BB000AF264BD3F88030FB61FB69C3
S214401E105B0BC3F30E037B62FB6903F007030433DB
S214401E20BB61FB69DB08C3F309037B617B69BB606D
S214401E30BB68B3FA83F37B607B68DBB203F01F03B7
S214401E403B61BFF34F8F7B693B623A6A3B6902FA5C
S214401E5003F319467A6ABB6902FA03F30B43FB6045
S214401E600F4AFB68C2F860323B6A5A1E3A62002B41
S214401E70EBD17B6A5A1E7A62002BE4D1BFF34F8FB8
S214401E80074A074B5B6943F480335361BFF34F8F78
S214401E90BFF36F8F00BF2C37BD465DF8047B70479D
S214401EA000ED00E080B582B000AF78607868034B04
S214401EB0984700BF0837BD4680BD00BF152D40007F
S214401EC080B500AF0A20084B98470B20064B984732
S214401ED00C20054B98471020034B98471120024B87
S214401EE0984700BF80BD00BFA51E400080B48DB09F
S214401EF000AF786039607B68FB623B68BB62FB6A18
S214401F007B627B6A5A09FB6A3B623B6A03F01F03AB
S214401F10012101FA03F3FA61BB61BB6A7B61FB698D
S214401F203B613A69374B13445B02FB607B6903F0C5
S214401F300803002B03D0FB68BA695A6602E0FB68C8
S214401F40BA691A667B6903F01003002B04D0FB685D
S214401F50BA69C3F8942003E0FB68BA69C3F89020D6
S214401F607B6903F02003002B03D0FB68BA691A652F
S214401F7002E0FB68BA695A657B6903F0C003002B30
S214401F8003D0FB68BA691A6202E0FB68BA695A6213
S214401F907B6903F08003002B04D0FB68BA69C3F862
S214401FA0842003E0FB68BA69C3F880207B6903F0AD
S214401FB00103002B06D0FB681A6FBB691A43FB6807
S214401FC01A6706E0FB681A6FBB69DB431A40FB687A
S214401FD01A677B6903F00203002B06D0FB685A6F32
S214401FE0BB691A43FB685A6706E0FB685A6FBB69D1
S214401FF0DB431A40FB685A6700BF3437BD465DF87E
S214402000047B70470707200080B48DB000AF78602F
S2144020100B46FB707B68FB62FB7887F82B30FB6ACD
S2144020207B627B6A3B623B6A5B09FB61FA69174BE2
S21440203013445B02BB6197F82B30012B09D1FB6A36
S2144020407B617B6903F01F0301229A40BB691A61DA
S2144020500CE097F82B30002B08D1FB6A3B613B69BC
S21440206003F01F0301229A40BB695A61FB6AFB607A
S214402070FB6803F01F0301229A40BB69C3F8A02007
S21440208000BF3437BD465DF8047B70470707200025
S21440209080B48BB000AF78600B46FB707B687B6289
S2144020A0FB7887F823307B6AFB61FB69BB61BB69C1
S2144020B05B097B617A69104B13445B023B6197F87E
S2144020C02330002B09D07B6AFB60FB6803F01F03BC
S2144020D001229A403B691A6308E07B6ABB60BB6892
S2144020E003F01F0301229A403B695A6300BF2C3716
S2144020F0BD465DF8047B70470707200080B48DB06E
S21440210000AF78600B46FB707B68FB62FB7887F815
S2144021102B30FB6A7B627B6A5A09FB6A3B623B6AEE
S21440212003F01F03012101FA03F3FA61BB6197F83C
S2144021302B30FB75FB693B613A69234B13445B02CA
S214402140FB60FB7D013B032B2ED801A252F823F007
S21440215085214000972140006121400073214000C6
S214402160FB68BA69C3F8C420FB68BA69C3F8D020D4
S2144021701FE0FB68BA69C3F8C420FB68BA69C3F8B5
S214402180D42016E0FB68BA69C3F8C020FB68BA6979
S214402190C3F8D0200DE0FB68BA69C3F8C020FB68DE
S2144021A0BA69C3F8D42004E0FB68BA69C3F8B4201F
S2144021B003E0FB68BA69C3F8B02000BF3437BD46B9
S2144021C05DF8047B704700BF0707200080B400AF6F
S2144021D0BFF34F8FBFF36F8F0C4A0C4BD3F8903240
S2144021E023F00103C2F89032084A084BD3F89432E1
S2144021F023F00103C2F89432BFF34F8FBFF36F8FC3
S21440220000BFBD465DF8047B704700BF00ED00E0B0
S21440221098B500AF4C4B4FF400425A604B4B984732
S2144022204B4B98474B4B4C4A5A604A4B4B4A5A602A
S2144022304B4B98474B4B9847012148204A4B984771
S21440224001214820494B984700210B20464B984790
S21440225088210B20464B984702210B20454B984738
S21440226000234FF400524FF060514348434CA04780
S21440227000234FF080424FF060513F483F4CA0470C
S2144022800123FF224FF000613B483C4CA04701230E
S2144022903F224FF000613A48384CA04701234FF4A4
S2144022A0C0324FF000613748344CA04701234FF40A
S2144022B080724FF000613048304CA04701234FF405
S2144022C000624FF000612C482C4CA04701234FF48D
S2144022D000224FF000612C48284CA04700234FF4C2
S2144022E000724FF080512448244CA0474FF40071B0
S2144022F02148264B98474FF080517420244B9847EE
S2144023004FF080517520224B98474FF080517620F1
S2144023101F4B98474FF080517B201D4B98474FF0FE
S214402320605118201A4B98474FF060510620184BC2
S21440233098474FF060515320154B98475320154B04
S214402340984700BF98BD00BF50180E40C91D4000BA
S214402350011E4000000C0E400C08005A0C07005AA4
S214402360CD214000C11E4000092040009120400081
S214402370ED1E4000FD20400000120E40D5254000D6
S21440238000160E40000E0E4000140E40C5234000BE
S2144023904D274000ED26400080B485B000AFF86081
S2144023A0B9607A607B68002B03D0FB68BA685A66CF
S2144023B002E0FB68BA681A6600BF1437BD465DF88F
S2144023C0047B704780B483B000AF786039607B6828
S2144023D03A681A6300BF0C37BD465DF8047B704709
S2144023E080B487B000AFF860B9607A60FB687A68FE
S2144023F05A64BB68B3F1C05F4AD0B3F1C05F08D837
S214402400B3F1006F16D0B3F1805F2CD0002B69D0AB
S21440241064E0B3F1205F65D0B3F1205F03D8B3F139
S214402420005F4AD05AE0B3F1405F5BD0B3F1605FE3
S21440243058D053E0FB681B6F7B61FB681A6F7B6864
S214402440D9437B690B401A40FB681A67FB685B6F91
S2144024507B61FB685A6F7B68D9437B690B401A40A7
S214402460FB685A673AE0FB681B6F7B617A687B695A
S2144024701A43FB681A67FB685B6F7B61FB685A6FA1
S2144024807B68D9437B690B401A40FB685A6725E056
S214402490FB681B6F7B61FB681A6F7B68D9437B695F
S2144024A00B401A40FB681A67FB685B6F7B617A6873
S2144024B07B691A43FB685A6710E0FB681B6F7B61B9
S2144024C07A687B691A43FB681A67FB685B6F7B61B7
S2144024D07A687B691A43FB685A6700BFFB687A686C
S2144024E05A6000E000BF1C37BD465DF8047B70476D
S2144024F080B584B000AFF860B9607A60B968F868B3
S214402500194B98477B6803F001031A46B968F86888
S214402510164B98477B6803F00A03002B03D0FB68F2
S214402520BA681A6202E0FB68BA685A627B6803F0CF
S2144025300203002B04D0FB68BA68C3F8802008E08A
S2144025407B6803F00803002B03D0FB68BA68C3F827
S2144025508420FB68BA685A61FB68BA681A6000BF94
S2144025601037BD4680BD00BFA126400099234000DD
S21440257080B584B000AFF860B9607A603B60B968F7
S214402580F868124B9847BA69B968F868104B98478C
S2144025903B68002B03D0FB68BA681A6502E0FB680C
S2144025A0BA685A657B68002B03D0FB68BA681A6322
S2144025B002E0FB68BA685A63FB68BA681A61FB684F
S2144025C0BA681A6000BF1037BD4680BDA1264000DD
S2144025D09923400090B587B002AFF860B9607A6042
S2144025E03B60BB68B3F1005F16D0B3F1005F09D81B
S2144025F0B3F1805F10D0B3F1C05F0DD0B3F1006F80
S2144026000AD03DE0B3F1405F1AD0B3F1605F17D017
S214402610B3F1205F0ED033E07A68B968F8681C4B97
S21440262098473B6803F001031A467968F868194BE7
S214402630984727E03A687968F868174B984721E04A
S214402640BB68B3F1605F0CBF01230023DBB21A46C0
S2144026503B6803F00403002B14BF01230023DBB2C6
S21440266019463B6803F00103002B14BF01230023E7
S214402670DBB200930B467968F868084CA04701E047
S214402680002300E0012318461437BD4690BD00BF26
S214402690E123400099234000F1244000712540008A
S2144026A080B483B000AF786039607B683A685A641B
S2144026B000BF0C37BD465DF8047B704780B483B0DE
S2144026C000AF78607B68DB6C18460C37BD465DF81B
S2144026D0047B704780B483B000AF78607B689B6CA7
S2144026E018460C37BD465DF8047B704780B584B00D
S2144026F000AF78607868084B9847F8607B6803F0CE
S2144027001F03012202FA03F31A46FB681A6300BF4E
S2144027101037BD4680BD00BFFD28400080B584B060
S21440272000AF78607868084B9847F8607B6803F09D
S2144027301F03012202FA03F31A46FB685A6300BFDE
S2144027401037BD4680BD00BFFD28400090B587B01D
S21440275002AF786039607868634B9847F8603B68AA
S21440276003F0F043B3F1005F67D0B3F1005F09D8E0
S214402770B3F1805F2BD0B3F1C05F43D0B3F1006FAD
S2144027800AD0A9E0B3F1405F7ED0B3F1605F7BD062
S214402790B3F1205F6CD09FE07B6803F01F030122FB
S2144027A002FA03F31A464FF00061F8684F4B984719
S2144027B07B6803F01F03012202FA03F319463B68C5
S2144027C003F001031A46F868494B984786E07B6851
S2144027D003F01F03012202FA03F31A464FF080511A
S2144027E0F868424B98477B6803F01F03012202FAC1
S2144027F003F319463B6803F001031A46F8683C4B5E
S21440280098476BE07B6803F01F03012202FA03F34C
S2144028101A464FF0C051F868344B98477B6803F02F
S2144028201F03012202FA03F319463B6803F0010333
S2144028301A46F8682E4B984750E07B6803F01F0313
S214402840012202FA03F31A464FF00051F868274B6C
S21440285098477B6803F01F03012202FA03F31946E8
S2144028603B6803F001031A46F868214B984735E069
S2144028707B6803F01F03012202FA03F33A68194605
S214402880F8681C4B984729E07B6803F01F03012239
S21440289002FA03F319463B6803F06053B3F1605FF6
S2144028A00CBF01230023DBB21A463B6803F0040347
S2144028B0002B14BF01230023DBB218463B6803F00D
S2144028C00103002B14BF01230023DBB20093034611
S2144028D0F868094CA04701E0002300E001231846B1
S2144028E01437BD4690BD00BFFD284000E1234000A0
S2144028F099234000F12440007125400080B485B003
S21440290000AF78607B685A09054B13445B02FB6056
S214402910FB6818461437BD465DF8047B704700BF19
S2144029200707200080B584B000AF786039607868CB
S214402930264B9847F8607868254B98470246FB68D0
S2144029401340FB60FB68002B3CD00023BB6034E0A8
S214402950204ABB681B0113441A683B689A4226D13A
S2144029601C4ABB681B01134404331A68FB681340B7
S214402970002B1CD0174ABB681B0113440C331B6842
S2144029801449BA6812010A4410681249BA6812011A
S2144029900A4404321268114698470E4ABB681B0127
S2144029A0134404331B68DB43FA681340FB60BB6880
S2144029B00133BB60BB68062B03D8FB68002BC7D12E
S2144029C000E000BF00BF1037BD4680BDBD264000BA
S2144029D0D5264000980D402080B500AF0A21024819
S2144029E0024B984700BF80BD000E0E402529400090
S2144029F080B500AF0B210248024B984700BF80BD10
S214402A0000100E402529400080B500AF0C2102483A
S214402A10024B984700BF80BD00120E40252940005B
S214402A2080B500AF10210248024B984700BF80BDDA
S214402A3000140E402529400080B500AF1121024801
S214402A40024B984700BF80BD00160E402529400027
S214402A5080B483B000AF78607B68013B032B1AD804
S214402A6001A252F823F000BF792A40007F2A400096
S214402A70872A40008F2A400000237B600EE04FF4F8
S214402A8080737B600AE04FF440737B6006E04FF44F
S214402A9000737B6002E000237B6000BF0A490A4B5C
S214402AA01B6B23F440727B6813430B6300BF064BDB
S214402AB09B6E03F00803002BF9D000BF0C37BD46D1
S214402AC05DF8047B704700BF00060E4080B485B0BA
S214402AD000AF78601D491D4B1B6B23F070027B686E
S214402AE013430B634FF48053FB6007E0FB68002BF7
S214402AF001D1012323E0FB68013BFB60134B9B6E37
S214402B0003F00803002BF1D0104A104B1B6B23F048
S214402B10030343F0020313634FF48053FB6007E064
S214402B20FB68002B01D1012309E0FB68013BFB60F9
S214402B30064B9B6E03F00803002BF1D0002318468B
S214402B401437BD465DF8047B704700BF00060E4054
S214402B5080B483B000AF78607B68012B05D107490D
S214402B60064B9A68064B13438B60044B054A1A6023
S214402B7000BF0C37BD465DF8047B704710180E400A
S214402B80000010A5080000A580B400AF094B5B69A3
S214402B9003F08003002B07D0074B9B6E03F08003A7
S214402BA0002B01D0012300E000231846BD465DF807
S214402BB0047B704710180E4000060E4080B483B069
S214402BC000AF78601549154B1A6A154B13430B62D4
S214402BD000BF124B9B6E03F40033002BF9D00F4915
S214402BE00E4B1A6A0F4B13407A68134343F45C1338
S214402BF00B6200BF094B9B6E03F40033002BF9D0E9
S214402C000649064B1A6A084B134043F45C130B62A2
S214402C1000BF0C37BD465DF8047B704700060E408B
S214402C20080037008FFFC8FFFFFFC8FE80B483B0A0
S214402C3000AF786039607B68002B08D01349134B8F
S214402C401B6A134A1A40134B13430B6218E00F4992
S214402C500E4B1A6A104B13403A68120292B21A434D
S214402C600E4B13430B6200BF084B9B6E03F00103F1
S214402C70002BF9D00549054B1A6A094B13430B62E2
S214402C8000BF0C37BD465DF8047B704700060E401B
S214402C90FCFFC8FE02003701FCFFC8FF01003700FA
S214402CA00000370180B400AF044B9B6E03F48033C2
S214402CB01846BD465DF8047B704700BF00060E40D0
S214402CC080B400AF044B4FF000529A6200BFBD463E
S214402CD05DF8047B704700BF00060E4080B400AF2E
S214402CE0044B9B6E03F002031846BD465DF8047B1A
S214402CF0704700BF00060E4080B400AF044B9B6E8A
S214402D0003F040031846BD465DF8047B704700BF9D
S214402D1000060E4080B485B000AF78600B4A7B68F2
S214402D2003F07F03C2F80C31084BD3F80C3143F064
S214402D301023FB60054AFB68C2F80C310023184696
S214402D401437BD465DF8047B704700BF00060E4052
S214402D5080B483B000AFEFF310837B607B68002BBA
S214402D600CBF01230023DBB23B6072B6BFF35F8F1C
S214402D70044B00221A703B6818460C37BD465DF877
S214402D80047B70470000402080B483B000AF78607A
S214402D907B68002B14BF01230023DBB218460C3798
S214402DA0BD465DF8047B704780B582B000AF786062
S214402DB07868074B98470346002B05D0054B012201
S214402DC01A70BFF35F8F62B600BF0837BD4680BD3E
S214402DD0892D40000000402080B584B000AF1E4BD7
S214402DE0FB601E4BBB60FA68BB689A420CD007E09B
S214402DF0BB681A1DBA60FA68111DF96012681A603D
S214402E00BB68174A9342F3D3164BBB6004E0BB68DB
S214402E101A1DBA6000221A60BB68134A9342F6D362
S214402E20124BFB60124AFB6823F07F039360114B02
S214402E3098477860104A104B1B6843F47003136041
S214402E40BFF34F8FBFF36F8F78680C4B98470C4B90
S214402E5098470C4B9847FEE7BCF4440000004020DF
S214402E60B8094020B8094020780E402000004000B5
S214402E7000ED00E0512D400088ED00E0A92D400017
S214402E8035394000A908400080B400AFFEE7000096
S214402E9080B400AF524B1B6B03F00303012B14D0DE
S214402EA0012B02D3022B38D07AE04E4B5B6903F0FD
S214402EB08003002B04D04C4B4FF400421A606FE066
S214402EC0494B4FF4FA421A606AE0454B1B6A03F0DE
S214402ED08073002B03D0444B444A1A6060E0424B58
S214402EE0434A1A603E4B1B6A03F07003102B04D013
S214402EF0202B08D0002B0ED00EE03B4B1B685B000F
S214402F00394A136008E0384B1A6813465B0013448E
S214402F10354A136000E000BF42E0314B1B6A03F0C5
S214402F208073002B03D0304B304A1A601CE02E4B87
S214402F302F4A1A602A4B1B6A03F07003102B04D0EA
S214402F40202B08D0002B0ED00EE0274B1B685B00D2
S214402F50254A136008E0244B1A6813465B00134466
S214402F60214A136000E000BF1D4B1B6B03F00303B8
S214402F70022B14D11A4B9B6A1B0CC3F30A03013372
S214402F80194A126802FB03F3174A1360144B9B6AF4
S214402F90DBB2154A1268B2FBF3F3134A136000BF64
S214402FA00F4B1B6B03F07003702B08D10E4B1B6846
S214402FB0104AA2FB03235B080B4A13600AE0084B47
S214402FC01B6B1B0903F00703074A126822FA03F338
S214402FD0054A136000BFBD465DF8047B704700BFDE
S214402FE000060E4010180E4004004020001BB7009C
S214402FF000093D00ABAAAAAA80B483B000AF7860AF
S2144030007B681D4A934204D81C4B4FF080621A607E
S2144030102BE07B681A4A934203D8184B194A1A6029
S21440302023E07B68184A934203D8144B174A1A6029
S2144030301BE07B68164A934203D8104B154A1A6029
S21440304013E07B68144A934204D80C4B4FF004229A
S2144030501A600AE07B68114A934203D8074B104A2D
S2144030601A6002E0054B0F4A1A6000BF0C37BD4697
S2144030705DF8047B704700BFBFF35E01000C0E4056
S2144030807FE7BD02000100043FDB1C040002000491
S214403090FFCE7B0500030004BFC2DA067FB63908C0
S2144030A0000500040006000480B485B000AF7860D8
S2144030B0104BFB60104B1B68002B02D10E4B0F4A87
S2144030C01A600D4B1B68BB60BA687B681A44FB6885
S2144030D09A4202DD4FF0FF3306E0074B1A687B68E2
S2144030E01344054A1360BB6818461437BD465DF85E
S2144030F0047B7047FCFF4520080E40207830402077
S21440310081F0004102E000BF83F0004330B54FEA53
S21440311041044FEA430594EA050F08BF90EA020FC0
S2144031201FBF54EA000C55EA020C7FEA645C7FEA53
S214403130655C00F0E2804FEA5454D4EB5555B8BF76
S2144031406D420CDD2C4480EA020281EA030382EAE7
S214403150000083EA010180EA020281EA0303362D79
S21440316088BF30BD11F0004F4FEA01314FF4801C4C
S2144031704CEA113102D0404261EB410113F0004F5E
S2144031804FEA03334CEA133302D0524263EB430315
S21440319094EA050F00F0A780A4F10104D5F1200EB3
S2144031A00DDB02FA0EFC22FA05F2801841F100010E
S2144031B003FA0EF2801843FA05F359410EE0A5F1E2
S2144031C020050EF1200E012A03FA0EFC28BF4CF013
S2144031D0020C43FA05F3C01851EBE37101F00045C9
S2144031E007D54FF0000EDCF1000C7EEB00006EEBD6
S2144031F00101B1F5801F1BD3B1F5001F0CD3490860
S2144032005FEA30004FEA3C0C04F101044FEA4452B6
S21440321012F5800F80F09A80BCF1004F08BF5FEA3D
S214403220500C50F1000041EB045141EA050130BD1D
S2144032305FEA4C0C404141EB010111F4801FA4F1C0
S2144032400104E9D191F0000F04BF01460020B1FA15
S21440325081F308BF2033A3F10B03B3F120020CDA4D
S2144032600C3208DD02F1140CC2F10C0201FA0CF02B
S21440327021FA02F10CE002F11402D8BFC2F1200C90
S21440328001FA02F120FA0CFCDCBF41EA0C01904046
S214403290E41AA2BF01EB0451294330BD6FEA04048F
S2144032A01F3C1CDA0C340EDC04F11404C4F120027A
S2144032B020FA04F001FA02F340EA030021FA04F38C
S2144032C045EA030130BDC4F10C04C4F1200220FAE3
S2144032D002F001FA04F340EA0300294630BD21FA21
S2144032E004F0294630BD94F0000F83F4801306BFE7
S2144032F081F480110134013D4EE77FEA645C18BFDB
S2144033007FEA655C29D094EA050F08BF90EA020F71
S21440331005D054EA000C04BF1946104630BD91EA69
S214403320030F1EBF0021002030BD5FEA545C05D16C
S2144033304000494128BF41F0004130BD14F58004AB
S2144033403CBF01F5801130BD01F0004545F0FE411F
S21440335041F470014FF0000030BD7FEA645C1ABF54
S214403360194610467FEA655C1CBF0B46024650EA8B
S214403370013406BF52EA033591EA030F41F40021B7
S21440338030BD00BF90F0000F04BF0021704730B53D
S2144033904FF4806404F132044FF000054FF0000112
S2144033A050E700BF90F0000F04BF0021704730B5D3
S2144033B04FF4806404F1320410F0004548BF4042A8
S2144033C04FF000013EE700BF42004FEAE2014FEAFD
S2144033D031014FEA02701FBF12F07F4393F07F4FD8
S2144033E081F06051704792F0000F14BF93F07F4F0A
S2144033F0704730B54FF4607401F0004521F000414D
S21440340020E700BF50EA010208BF704730B54FF0D2
S21440341000050AE050EA010208BF704730B511F0D7
S214403420004502D5404261EB41014FF4806404F10F
S21440343032045FEA915C3FF4DCAE4FF003025FEA91
S214403440DC0C18BF03325FEADC0C18BF033202EB19
S214403450DC02C2F1200300FA03FC20FA02F001FA73
S21440346003FE40EA0E0021FA02F11444C1E600BF12
S21440347070B54FF0FF0C4CF4E06C1CEA11541DBFC5
S2144034801CEA135594EA0C0F95EA0C0F00F0DEF890
S2144034902C4481EA030621EA4C5123EA4C5350EA75
S2144034A0013518BF52EA033541F4801143F48013C6
S2144034B038D0A0FB02CE4FF00005E1FB02E506F057
S2144034C00042E0FB03E54FF00006E1FB03569CF0AC
S2144034D0000F18BF4EF0010EA4F1FF04B6F5007FB2
S2144034E064F5407404D25FEA4E0E6D4146EB060624
S2144034F042EAC62141EA55514FEAC52040EA5E50AD
S2144035004FEACE2EB4F1FD0C88BFBCF5E06F1ED856
S214403510BEF1004F08BF5FEA500E50F1000041EB8D
S214403520045170BD06F0004646EA010140EA02003A
S21440353081EA0301B4EB5C04C2BFD4EB0C0541EA5C
S214403540045170BD41F480114FF0000E013C00F371
S214403550AB8014F1360FDEBF002001F0004170BD95
S214403560C4F10004203C35DA0C341BDC04F11404AE
S214403570C4F1200500FA05F320FA04F001FA05F23A
S21440358040EA020001F0004221F0004110EBD37007
S21440359021FA04F642EB06015EEA430E08BF20EA33
S2144035A0D37070BDC4F10C04C4F1200500FA04F3D6
S2144035B020FA05F001FA04F240EA020001F0004168
S2144035C010EBD37041F100015EEA430E08BF20EADB
S2144035D0D37070BDC4F1200500FA05F24EEA020E23
S2144035E020FA04F301FA05F243EA020321FA04F052
S2144035F001F0004121FA04F220EA020000EBD37009
S2144036005EEA430E08BF20EAD37070BD94F0000F08
S2144036100FD101F00046400041EB010111F4801F3C
S21440362008BF013CF7D041EA060195F0000F18BFED
S214403630704703F00046520043EB030313F4801F29
S21440364008BF013DF7D043EA0603704794EA0C0FE3
S2144036500CEA135518BF95EA0C0F0CD050EA4106F9
S21440366018BF52EA4306D1D181EA030101F0004176
S2144036704FF0000070BD50EA410606BF104619469E
S21440368052EA430619D094EA0C0F02D150EA0136AA
S21440369013D195EA0C0F05D152EA03361CBF1046EB
S2144036A019460AD181EA030101F0004141F0FE418A
S2144036B041F470014FF0000070BD41F0FE4141F40E
S2144036C0780170BD70B54FF0FF0C4CF4E06C1CEA0E
S2144036D011541DBF1CEA135594EA0C0F95EA0C0FC3
S2144036E000F0A7F8A4EB050481EA030E52EA03357E
S2144036F04FEA013100F088804FEA03334FF080559F
S21440370045EA131343EA12634FEA022245EA1115CB
S21440371045EA10654FEA00260EF000419D4208BF7C
S214403720964244F1FD0404F5407402D25B084FEA29
S2144037303202B61A65EB03055B084FEA32024FF4D5
S21440374080104FF4002CB6EB020E75EB030E22BF32
S214403750B61A754640EA0C005B084FEA3202B6EBF2
S214403760020E75EB030E22BFB61A754640EA5C00A1
S2144037705B084FEA3202B6EB020E75EB030E22BF31
S214403780B61A754640EA9C005B084FEA3202B6EB32
S214403790020E75EB030E22BFB61A754640EADC00F1
S2144037A055EA060E18D04FEA051545EA16754FEA53
S2144037B006164FEAC30343EA52734FEAC2025FEA71
S2144037C01C1CC0D111F4801F0BD141EA00014FF000
S2144037D000004FF0004CB6E711F4801F04BF0143D1
S2144037E00020B4F1FD0C88BFBCF5E06F3FF6AFAEED
S2144037F0B5EB030C04BFB6EB020C5FEA500C50F17D
S214403800000041EB045170BD0EF0004E4EEA1131FF
S21440381014EB5C04C2BFD4EB0C0541EA045170BD06
S21440382041F480114FF0000E013C90E645EA060E4A
S2144038308DE60CEA135594EA0C0F08BF95EA0C0F78
S2144038403FF43BAF94EA0C0F0AD150EA01347FF4C0
S21440385034AF95EA0C0F7FF425AF104619462CE797
S21440386095EA0C0F06D152EA03353FF4FDAE1046FA
S214403870194622E750EA410618BF52EA43067FF44B
S214403880C5AE50EA41047FF40DAF52EA43057FF4DB
S214403890EBAE12E74FEA4102B2F1E04324BFB3F584
S2144038A0001CDCF1FE5C0DD901F0004C4FEAC00272
S2144038B04CEA5070B2F1004F40EB830008BF20F056
S2144038C00100704711F0804F21D113F13872BCBF10
S2144038D001F00040704741F480114FEA5252C2F165
S2144038E01802C2F1200C10FA0CF320FA02F018BFAE
S2144038F040F001004FEAC1234FEAD32303FA0CFC01
S21440390040EA0C0023FA02F34FEA4303CCE77FEA8F
S214403910625307D150EA01331EBF4FF0FE4040F4D9
S2144039204000704701F0004040F0FE4040F4000088
S214403930704700BF70B50F4E0F4D761BB61018BFC0
S214403940002405D0013455F8043B9847A642F9D1E7
S2144039500A4E0B4D761B4BF09BFDB61018BF00244D
S21440396006D0013455F8043B9847A642F9D170BDBD
S21440397070BD00BF9CF444009CF44400A4F4440092
S2144039809CF4440070B4860746D0541E002A41D0AA
S214403990CAB2034602E014F1FF343BD303F8012BCE
S2144039A09D07F8D1032C2ED9CDB245EA05250F2C1C
S2144039B045EA054519D903F110022646103E0F2E5A
S2144039C042F8105C42F80C5C42F8085C42F8045C32
S2144039D002F11002F2D8A4F1100222F00F0204F015
S2144039E00F041032032C13440DD91E462246043AC7
S2144039F0032A46F8045BFAD8221F22F00302043258
S214403A00134404F003042CB1C9B21C4403F8011B50
S214403A109C42FBD170BC704714460346C2E700BFC9
S214403A200EB4F0B59CB021AB0F4953F8042B01936C
S214403A3005466FF00044086802954FF402774FF64B
S214403A40FF7602A90695ADF8147004940794ADF875
S214403A50166000F00BF8029B00221A701CB0BDE8FE
S214403A60F04003B0704700BF080040202DE9F04FFB
S214403A70C3B00C460B9192460F930C9002F00CFA92
S214403A8003681A93184603F0DBF8A38919901906C1
S214403A9003D52369002B01F0038000230DF1C809EC
S214403AA01393159314932793269318931B93099374
S214403AB0CDF89490C846169317939AF8003054461B
S214403AC0E3B1252B02D119E0252B03D014F8013F92
S214403AD0002BF9D1A4EB0A0585B1269B279AC8F896
S214403AE000A001332A44072BC8F804502792269397
S214403AF07FDC08F10808099B2B4409932378002BA8
S214403B007FD000231A468DF8773019460D939B4692
S214403B104FF0FF3063780A9004F1010A0AF1010A77
S214403B20A3F12000582800F2C183DFE810F03802E5
S214403B30BF03BF034002BF03BF03BF03BF03BF03B0
S214403B40BF0345020302BF035D006B02BF0386024C
S214403B509D039D039D039D039D039D039D039D0320
S214403B609D03BF03BF03BF03BF03BF03BF03BF0322
S214403B70BF03BF03BF0337035703BF035703BF0348
S214403B80BF03BF03BF039803BF03BF03AD03BF0319
S214403B90BF03BF03BF03BF035902BF03BF031E03D8
S214403BA0BF03BF03BF03BF03BF03BF03BF03BF03C0
S214403BB0BF03BF03C602DB025703570357038B02FC
S214403BC0DB02BF03BF039002BF039D02CC01B402D9
S214403BD00802BF03E101BF037E00BF03BF030D021F
S214403BE00D980F9340420D904BF0040B9AF800301E
S214403BF094E725AA0B990C9803F090F840B9C8466C
S214403C0079E7279B23B10C980B9925AA03F086F8F1
S214403C100B9B9B8913F0400F099B18BF4FF0FF3357
S214403C200993099843B0BDE8F08F1BF0200F11931D
S214403C3040F0DD810F9A1BF0100F134640F06E8562
S214403C401BF0400F00F06A851488043200250123DB
S214403C500F9200278DF877700A994A1C00F065820B
S214403C602BF08002079254EA050240F06482002955
S214403C7040F03C84002B40F0D7841BF001030E93A9
S214403C8000F0048642AE302306F8413D0A9B0E9A69
S214403C909342B8BF134608930023129317B1089B6C
S214403CA001330893079B13F00203109302D0089B3E
S214403CB002330893079B13F0840540F00E830D9B58
S214403CC0089AA3EB020BBBF1000F40F30683BBF14F
S214403CD0100F279C269A29DD43462146A8461027E2
S214403CE00C9C0B9D06E0ABF1100BBBF1100F03F1E3
S214403CF0080318DD0132B74826921031072A27916B
S214403D0083E88100EFDD25AA2946204603F006F821
S214403D1000287FF47DAFABF1100BBBF1100F279955
S214403D20269A4B46E6DC45460C4698460132A94B59
S214403D3026925C44072A279488E8080800F398846B
S214403D409DF8777008F1080877B1269B0133013457
S214403D500DF177010122072B2794269388E8060069
S214403D6000F3DB8308F10808109B6BB1269B0133F8
S214403D7002341EA90222072B2794269388E80600C1
S214403D8000F3D68308F10808802D00F015830A9BBF
S214403D900E9A9F1A002F36DD102F269B8E4D27DD5C
S214403DA042462146B0464FF0100B2E460C9C0B9DCB
S214403DB004E0103F102F02F1080215DD01331031E8
S214403DC0072B2791269382E84008F2DD25AA29464C
S214403DD0204602F0A3FF00287FF41AAF103F102FB2
S214403DE02799269B4A46E9DC35460C464646904689
S214403DF001333C44072B2794269388E8A00000F321
S214403E00818308F10808079BDF0500F16882269B3E
S214403E100E99C8F8006001330C44072B2794C8F865
S214403E200410269300F34D8308F10808079B5B07B0
S214403E303AD50D9B089A9D1A002D35DD102D269BF0
S214403E4020DD10260C9FDDF82CB004E0103D102D30
S214403E5008F1080816DD01335E4A26931034072B16
S214403E60279488E84400F1DD25AA5946384602F0F2
S214403E7055FF00287FF4CCAE103D102D279C269B86
S214403E80C846E8DC0133534A26932C44072B279434
S214403E9088E8240008DD25AA0B990C9802F03EFF1E
S214403EA000287FF4B5AE279C099B0D9A08998A4254
S214403EB0ACBF9B185B180993002C40F00D83002381
S214403EC02693C846F9E511931BF0200340F0E381A2
S214403ED01BF0100240F02E841BF0400300F02A84B2
S214403EE00F9913460A4604320C880F920025B0E616
S214403EF00F9A1193166800248DF87740151D002EF2
S214403F0000F0A7860A9A531C00F0098621463046E0
S214403F1002F086FA002800F0E186831B0E930A948E
S214403F200F95CDF81CB023EAE373089312949DF8DE
S214403F307770B3E69AF8003001222B21EEE54BF07D
S214403F40200B9AF80030E9E51193002A40F0958757
S214403F50224B18931BF0200F40F011810F9A1BF054
S214403F60100F134640F0E1831BF0400F00F0DD8356
S214403F70043314880F9300251BF0010F00F00C81CA
S214403F8054EA050300F0088130239DF844208DF85C
S214403F9078308DF879204BF0020B022359E69AF8D8
S214403FA0003000297FF4BAAD01222021B6E54BF05F
S214403FB0010B9AF80030B1E50F9C23680D93184624
S214403FC00028234603F10403FFF60AAE0F939AF83F
S214403FD00030A3E550F2440060F2440030F2440062
S214403FE04BF0100B1BF0200F11933FF423AE0F9DA8
S214403FF0073525F0070303F10802D3E900450F9281
S214404000012326E69AF800302A2B0AF1010400F034
S2144040102787A3F130000928A24600F2AD86002388
S2144040201C461AF8013B04EB840400EB4404A3F15D
S21440403030000928F5D90A9472E54BF0800B9AF8BF
S21440404000306BE54BF0400B9AF8003066E59AF886
S21440405000306C2B03BF9AF801304BF0200B0AF16E
S214404060010A4BF0100B59E5002A40F011871BF06F
S214404070200F40F0F9841BF0100F40F0AC841BF08A
S214404080400F00F0A8840F9A136804320F92BDF8D0
S21440409024201A8011E50F99B34B0C6818933022F0
S2144040A0782304318DF8793011934BF0020B0F9141
S2144040B000258DF878200223CBE50F9911930A68E6
S2144040C08DF8A02000230A461F468DF8773004322C
S2144040D001230893CDF81CB00A9712970F920E93BF
S2144040E028AEDFE51193002A40F0EA861BF0200F49
S2144040F05DD11BF0100F40F008831BF0400F00F01E
S21440410004830F99B1F900400431E51722462B4647
S2144041100F91002A73F1000358DB0A999DF87770D7
S2144041204A1C4FF001037FF49BAD54EA050200F0B1
S214404130DF81CDF81CB0012B00F07B82022B40F0D3
S214404140068218984E46230904F00F0143EA057389
S2144041502A091C461546435C06F8013D54EA050309
S214404160F1D1A9EB06030E9390E51193002A40F097
S214404170A3867E4B18931BF0200F3FF4EFAE0F9DA7
S214404180073525F0070303F108021BF0010F0F92D5
S214404190D3E900457FF4F4AE02235AE51193002A92
S2144041A040F086864BF0100B1BF0200FA1D00F9DE1
S2144041B0073525F00705D5E90023002A05F1080153
S2144041C01D4673F100030F911446A6DA2D2764426C
S2144041D065EB45058DF8777001233DE51193002A80
S2144041E040F062860F9D073525F0070303F108026D
S2144041F00F921A6815925B681493149B159D23F0D2
S2144042000044284621464FF0FF32594B03F082FACD
S214404210002840F04A83284621464FF0FF32544B50
S21440422003F05AFA002840F0408315A80DC81499A8
S21440423003F048FA002840F030859DF877704D4EE0
S2144042404D4B2BF0800007901198032200210892D6
S2144042500A914728D8BF1E460E9212911EE54BF093
S214404260080B9AF8003059E4A3F1300000231C46AE
S2144042701AF8013B04EB840400EB4404A3F130003D
S2144042800928F5D90D944BE44BF0100B11931BF015
S21440429020033FF41DAE0F9D073525F0070303F1BD
S2144042A00802D3E900450F920023D2E41193002A76
S2144042B040F0E785119A002A3FF4A3AC0023012181
S2144042C01F4608918DF8A020CDF81CB08DF87730A9
S2144042D00A9312930E9128AEE4E4279C34E5119B92
S2144042E0652B40F3A78015A80DC8149903F0E0F994
S2144042F0002800F05081269B204AC8F80020013351
S21440430001340122072B27942693C8F8042000F393
S2144043106A8308F108081F9B139A279C934203DB85
S214404320079BDD077FF582AD269B19991A9AC8F838
S214404330002001330C44072BC8F80410279426931A
S21440434000F39E8308F10808139B5E1E002E7FF73D
S2144043506DAD102E269B0A4D40F3F5812246102760
S214404360DDF830B00B9C13E030F244001CF2440001
S214404370FFFFEF7F10F244000CF244004CF2440082
S21440438060F2440008F10808103E102E40F3DA812F
S21440439001331032072B2792269388E8A000F1DDE0
S2144043A025AA2146584602F0B9FC00287FF430ACD6
S2144043B0279A269BC846E7E70D9B089A9F1A002F28
S2144043C07FF7E5AC102F269BB64D27DD42462146AB
S2144043D0B0464FF0100B2E460C9C0B9D04E0103F51
S2144043E0102F02F1080215DD01331031072B2791FB
S2144043F0269382E84008F2DD25AA2946204602F0A8
S2144044008DFC00287FF404AC103F102F2799269B84
S2144044104A46E9DC35460C464646904601333C441F
S214404420072B2794269388E8A00000F3328208F1F1
S2144044300808ACE4139B269F012B40F3FE8101370E
S21440444001340123072F27942697C8F80060C8F840
S214404450043000F3038208F10808199A1A9BC8F83A
S214404460003001371444072F27942697C8F80420B5
S21440447000F3008208F1080815A80DC8149903F047
S21440448017F9139B002840F00181013B01370136A4
S2144044901C44072F26972794C8F80060C8F80430B5
S2144044A000F3278108F108081B9AC8F80420013752
S2144044B0144421AB072F27942697C8F800307FF77F
S2144044C0B3AC25AA0B990C9802F028FC00287FF480
S2144044D09FAB279CC846A9E425AA0B990C9802F0E6
S2144044E01DFC00283FF4EBACFFF792BBDDF81CB098
S2144044F0012B00F03481022B25D1CDF81CB00024CE
S21440450000251EE625AA0B990C9802F007FC002809
S2144045107FF47EAB279CC84675E425AA0B990C9879
S21440452002F0FCFB00287FF473AB279CC8461BE4D4
S21440453025AA0B990C9802F0F1FB00287FF468AB93
S214404540279CC84620E4CDF81CB0002400254946E8
S21440455000E03146E20842EA4572E80804F0070304
S21440456005461446303354EA050201F8013C01F191
S214404570FF36EED1079AD2077FF5F3AD302B3FF4E6
S214404580F0AD0239302306F8013CA9EB01030E9347
S2144045900E46FFF77BBB1F99002940F32E82129BE5
S2144045A0139A9342A8BF1346002B1F460DDD269B49
S2144045B0C8F8006001333C44072B2794C8F80470C1
S2144045C0269300F31F8308F10808129B002FA8BF0C
S2144045D0DB1B002B1F4640F3D680102F269B314D09
S2144045E040F3ED8142462146B0464FF0100B2E4632
S2144045F00C9C0B9D04E00832103F102F40F3DB81EB
S21440460001331031072B2791269382E84008F2DDCC
S21440461025AA2946204602F081FB00287FF4F8AA06
S2144046202799269B4A46E7E70A9B0E934E46FFF796
S2144046302DBB002D08BF0A2CC0F08F804E4620466A
S21440464029460A22002303F0A3F8303206F8012D4B
S2144046502046294600230A2203F09AF804460D46CF
S21440466054EA0503EBD1A9EB06030E93FFF70EBB06
S21440467025AA0B990C9802F051FB00287FF4C8AA93
S2144046809DF87770279CC846FFF75EBB5E1E002EDF
S2144046907FF70AAF102E034D22DD22464FF0100B57
S2144046A00C9C06E060F24400103E102E08F108080C
S2144046B015DD01371032072F2792269788E8200805
S2144046C0F2DD25AA0B99204602F028FB00287FF44D
S2144046D09FAA103E102E279A269FC846E9DC14460D
S2144046E001373444072F2794269788E860007FF7E1
S2144046F0D9AE25AA0B990C9802F010FB00287FF43F
S21440470087AA279C269FC846CEE60F9A146813466B
S2144047100433E5170F9322462B46FAE404321C680E
S2144047200F9201230025FFF794BA1C6804330F93B9
S214404730002521E40F990A4604320C680F920025A2
S214404740FFF787BA144601333444072B2794269341
S21440475088E860007FF768ABB3E6DDF81CB0CDF8BC
S2144047601CB042AE3034012306F8414D0E93FFF79D
S2144047708DBA25AA0B990C9802F0D0FA00287FF43F
S21440478047AA279CC8461F9A139B9A4244DB079B1E
S214404790D90741D4139B12989A1A1D1A9542A8BF5E
S2144047A01546002D0EDD2699C8F804500131064402
S2144047B02C440729C8F800602794269100F33B82D2
S2144047C008F10808002DACBF561B1646002E7FF792
S2144047D02DAB102E269BB04DB5DD22461027DDF8BA
S2144047E030B00B9C04E008F10808103E102EA9DDFE
S2144047F001331032072B2792269388E8A000F2DD7B
S21440480025AA2146584602F089FA00287FF400AAD5
S214404810279A269BC846E8E7269B19981A99C8F80F
S214404820001001330444072B2794C8F8040026934D
S21440483000F3F58108F10808ACE7079BDA073FF577
S214404840FEAD013701340123072F27942697C8F879
S2144048500060C8F804307FF725AE4AE725AA0B99D2
S2144048600C9802F05BFA00287FF4D2A9279C269F7A
S214404870C846F2E525AA0B990C9802F04FFA002894
S2144048807FF4C6A9279C269FC846F5E54E46FFF707
S214404890FDB925AA0B990C9802F040FA00287FF43F
S2144048A0B7A9279CC846FFF772BA159C22462046F1
S2144048B0149C2346214602F02DFF002840F08682B5
S2144048C00A9B0133119B23F020030E9300F0E281F4
S2144048D0472B00F01E814BF480730793149B1F1EDA
S2144048E0159B0893BBBF3B4603F1004700232D238F
S2144048F01093119B662B00F0BB81462B00F0DF80A7
S2144049000E9B089A452B0CBF0A9B0A9D23A820A9FC
S21440491008BF5D1C049003911FA802213B460290ED
S214404920019500910C9800F073FB119B672B06468F
S21440493040F0E0811BF0010F00F046827419169A91
S2144049400898179B394602F0B3FE002840F0658170
S214404950239BA34206D230215A1C23921970239BD4
S2144049609C42F9D89B1B13930E9B472B00F0E98083
S214404970119B652B40F3CD81119B662B1F9B129399
S21440498000F09E81139B129A1946914200F38A8149
S2144049901BF0010F40F0138222EAE273089367236C
S2144049A00E921193109B002B40F0C4800A939DF802
S2144049B07770FFF773B935460C4646469046013346
S2144049C03C44072B2794269388E8A0003FF7D1AEB7
S2144049D008F10808D7E60F9A136804320F92099A2E
S2144049E01A60FFF76AB825AA0B990C9802F096F958
S2144049F000287FF40DA9C8468DE4269B274AC8F8B0
S214404A000020013301340122072B27942693C8F84F
S214404A10042072DC08F1080829B9139B1BB9079BD0
S214404A20D8077FF503AA269B19981A9AC8F800203B
S214404A30013302462244072B2792C8F804002693E7
S214404A4000F38D8108F108080029C0F265811399AA
S214404A50C8F8006001338C18072B27942693C8F8B3
S214404A6004107FF7E1A92CE50F9A09991368CD1732
S214404A700846043229460F92C3E90001FFF71DB8E5
S214404A8025AA0B990C9802F049F900287FF4C0A893
S214404A90279CC84658E400BF60F244004CF24400ED
S214404AA040210C9801F00AFA0B9A10601061002819
S214404AB000F0F2810B9A40235361FEF7EEBF23A825
S214404AC020A90A9C049003911FA803210290089AEB
S214404AD001943B4600910C9800F09AFA254606460B
S214404AE0119B462B06EB05047FF429AF3378302B19
S214404AF000F078811F9D2C4421E725AA0B990C983D
S214404B0002F00CF900287FF483A81F99279CC8461A
S214404B1082E70A9B002B08BF01230A93DBE6304658
S214404B200A9402F08DF80F950E90CDF81CB003460F
S214404B30FFF7F9B92D2700238DF877700A93FFF712
S214404B40AEB81F9B12931A46033304DB0A9B1946E2
S214404B509142BFF617AF119B023B11939DF844302C
S214404B608DF88430129B013B002B1F93BDBF129BD8
S214404B70C3F101032D222B22092B8DF8852040F30B
S214404B8016810DF193042046AB4D00E0104685FBA0
S214404B900312D917C1EBA20101EB8102A3EB42023B
S214404BA03032092900F8012C0B4600F1FF32EDDCCB
S214404BB030330238D9B2844202F8011C40F2658193
S214404BC00DF18600134601E013F8011B00F8011BA7
S214404BD0A342F9D101339B1A0DF18602134421AA50
S214404BE09B1A139A1B93012A13440E9340F3198180
S214404BF00E9B199A13440E9323EAE37308930023FB
S214404C001293CFE625AA0B990C9802F087F8002855
S214404C107EF4FEAF279CC846D7E42346A2E625AAE4
S214404C200B990C9802F07AF800287EF4F1AF1F9AA0
S214404C30279CC846AEE525AA0B990C9802F06EF85C
S214404C4000287EF4E5AF1F9A139B279C9A1AC84605
S214404C50B8E50A9B1296062B28BF06230A963746C7
S214404C6008930F95CDF81CB00E93744EFFF716B808
S214404C7023A820A90A9D049003911FA8032102900F
S214404C80089A01953B4600910C9800F0C1F90646FB
S214404C9044192BE706230A931DE62D278DF87770D7
S214404CA0FFF7CDBA199A139B1344129A0E93002A13
S214404CB040F3B08023EAE37308936723119371E6C9
S214404CC0002B40F3C3800A9A002A40F099801BF0DC
S214404CD0010F40F0958008930E9363E60A9B089375
S214404CE00E930A900F95CDF81CB012909DF87770F1
S214404CF0FEF7D4BF119B472B7FF420AE1BF0010F6D
S214404D007FF4EEAE239B9B1B13930E9B472B3FF4E7
S214404D1018AF1F9B129321E74F421031484D2FDAB0
S214404D201024DDF830B004E008F10808103F102FDA
S214404D3026DD01331032072B27922693C8F8005001
S214404D40C8F80440F0DD25AA0B99584601F0E6FF66
S214404D5000287EF45DAF279A269BC846E6E725AA3C
S214404D600B990C9801F0DAFF00287EF451AF1F999A
S214404D70279A269BC84667E600200A90FEF7D0BED4
S214404D8001333A44072B88E8A0002792269308F17F
S214404D9008087FF75CAE25AA0B990C9801F0BEFF79
S214404DA000287EF435AF279A269BC8464FE6303318
S214404DB030228DF887308DF8862022AB0FE7129B85
S214404DC0199A13440E9375E7239BCBE5149B1D4E0F
S214404DD0002BB6BF2D279DF877708DF877701A4B4D
S214404DE0FFF72FBA169A0898179B394602F060FCD0
S214404DF000287FF47FAEC5F101051F952C449EE543
S214404E00129B199A13440A9A1A4422EAE2730E92A3
S214404E100893C7E5129B0E9AC3F101031A44134642
S214404E20D0E71BF0010312937FF4E2AE0E9B23EA19
S214404E30E3730893B6E500BF6766666644F24400CF
S214404E4060F2440018F2440014F244000A9B13B97E
S214404E501BF0010F02D0199B0133D4E701233AE738
S214404E600F9D9AF80130286840EAE0700A9028467C
S214404E700430A2460F90FEF751BE8DF87710FFF72C
S214404E8067B88DF87710FFF715BA0DF18603A6E6DA
S214404E908DF87710FFF7EBB80C9A0C2313604FF0A1
S214404EA0FF330993FEF7BDBE8DF87710FFF79AB92A
S214404EB08DF87710FFF776B98DF87710FFF759B968
S214404EC08DF87710FFF712B9024B13B1024800F085
S214404ED005B8704700000000655E400000230146AC
S214404EE01A46184601F098BF02690B69934200F3D0
S214404EF08D802DE9F04F03F1FF3801F1140700F1E2
S214404F00140B57F828205BF828304FEA880483B003
S214404F100132B3FBF2F90BEB0403009407EB040AEF
S214404F200193B9F1000F39D000252E46BC46DE4627
S214404F305CF8044BDEF80030A2B209FB0255220CA6
S214404F402C0C09FB0242ADB2751B96B2C6EB13465B
S214404F5015FA83F306EB23469BB243EA0643E24543
S214404F604FEA12454EF8043B4FEA2646E0D2009BF5
S214404F705BF8033093B9019C231F9B450CD254F831
S214404F80043C4BB9A4F1080302E01A68043B1AB982
S214404F909B4508F1FF38F8D3C0F81080044601F06E
S214404FA033FD00282EDB09F101095D46002357F842
S214404FB0041B28688AB29A1A0B0C12FA80F2C3EBCA
S214404FC0104303EB224392B242EA0342BA4545F805
S214404FD0042B4FEA2343EAD25BF828200BEB8803E6
S214404FE082B91A1F93450BD253F8042C42B9083B9A
S214404FF002E01A68043B1AB99B4508F1FF38F8D31B
S214405000C4F81080484603B0BDE8F08F00207047D3
S2144050102DE9F04F016C9BB00446279E92469B4676
S21440502041B1426C4A60012393408B6001F014FB0F
S21440503000232364BBF1000F5D4635DB002333605D
S2144050409D4BAB4315D0504659460022002302F0F4
S2144050502FFB804600282DD0269A01231360289BDC
S214405060002B00F0BD809548186001381BB0BDE8A5
S214405070F08F269A42F20F731360BAF1000F0DD1EB
S214405080C5F3130555B9289B8D48002BEED000F18B
S2144050900803289A13601BB0BDE8F08F289B894808
S2144050A0002BE3D0C31CF4E701232BF0004533600C
S2144050B0AB46C5E718AA19AB0192009352465B4629
S2144050C0204601F041FD2B0D814671D0CBF31302F3
S2144050D042F07F51189FCDF850805046A3F2FF36DD
S2144050E041F440110022784BFEF70EF86CA3D3E94A
S2144050F00023FEF7BDF96CA3D3E90023FEF706F8BC
S214405100CDE902013046FEF74DF969A3D3E9002305
S214405110FEF7AEF902460B46DDE90201FDF7F6FF63
S214405120CDE9040102F00CFB002202900023DDE9E9
S214405130040102F0C7FA002840F07381029D162D44
S21440514000F25D81614B03EBC503D3E90001524693
S2144051505B4602F0D5FA002800F0C5816B1E02932C
S21440516000230E93BF1B7B1E069300F15481002341
S2144051700893029B002BC0F24581069A0D93114678
S2144051801944002306910C93249B092B2AD8052BFF
S21440519040F35B86043B24930025249B023B032B71
S2144051A000F24286DFE813F0D403C902DF0361044D
S2144051B0189F199E3E4406F23243202B40F38E81C0
S2144051C0C3F1400306F212409D402AFA00F02843FD
S2144051D0FEF7D8F80123013EA1F1F871149381E758
S2144051E03B4843E7002161642046259101F00EFAD2
S2144051F04FF0FF330A93259A0F93012304902064BF
S21440520024920B93199B002BC0F2D980029A0E2A47
S21440521000F3D5802D4B03EBC203D3E90023CDE941
S2144052200823259B002BC0F2BA83DDE9085650467A
S2144052302A4633465946FEF745FA02F081FA80463A
S214405240FEF7B0F82A463346FEF712F90B460246FA
S21440525059465046FDF758FF049D08F130032B7021
S2144052600A9B012B06460F4605F1010568D0002231
S214405270184BFEF7FDF80022002306460F4602F0C4
S21440528017FA002840F08880CDF82C904FF0000A9E
S214405290DFF840B00C94DDE9088928E0AFF30080E1
S2144052A061436F63A787D23FB3C8608B288AC63FE7
S2144052B0FB799F501344D33F0000F07F4DF24400EB
S2144052C070F244007CF244000000F83FA8F244002C
S2144052D04CF2440000002440FEF7CAF800220023A7
S2144052E006460F4602F0E4F9002840F0C1834246E5
S2144052F04B4630463946FEF7E5F902F021FA0446B9
S214405300FEF750F842464B46FEF7B2F802460B46CA
S21440531030463946FDF7F8FE04F1300E049E05F897
S21440532001EBA5EB060E0A9EB645CDE906015246B0
S2144053305B46D1D1A046DDF82C900C9C06460F4625
S21440534032463B4630463946FDF7E0FE06460F46B7
S21440535002460B46DDE9080102F0B4F948B9324688
S2144053603B46DDE9080102F0A3F9A8B118F0010FA9
S21440537012D015F8018C049A6B1E04E09A4200F095
S214405380018413F8018DB8F1390F03F10105F5D00A
S21440539008F1010883F800804946204601F05CF990
S2144053A00022029B2A70269A01331360289B002B0A
S2144053B000F09E8304981D601BB0BDE8F08F0B9AEA
S2144053C0002A3ED0249A012A40F311830A9B0C9A65
S2144053D05F1EBA42C0F28F83D71B0A9B002BC0F2D7
S2144053E08B84089D0A9B089A1A440892069A0121C3
S2144053F01A442046069201F0C9F9064624E00123E5
S2144054000E93AFE6089A029BD21A5B420C93002397
S21440541008920D93B8E6C7F101030893002306935C
S214405420A7E6029D2846FDF7BDFF02460B46DDE98E
S214405430040102F03DF900287FF480AE6B1E029313
S2144054407CE60C9F089D0B9E002D0CDD06990029DE
S2144054500B4608DDA942089AA8BF2B46D21AED1A79
S214405460CB1A089206930C9BD3B10B9B002B00F0F3
S214405470B782002F10DD31463A46204601F022FA28
S2144054804A4601460646204601F08AF94946804685
S214405490204601F0E1F8C1460C9BDA1B40F0A182A1
S2144054A00121204601F072F90D9B002B80461CDD41
S2144054B001461A46204601F005FA249B012B8046F9
S2144054C040F3548200230C93D8F8103008EB830343
S2144054D0186901F00BF9C0F1200010E0C3F1200577
S2144054E00AFA05F074E60E903CE6249B012B40F346
S2144054F0878200230C930D9B0120002BE4D1069A53
S214405500104410F01F0000F0A180C0F12003042BCF
S21440551040F39E84089BC0F11C0003440893134646
S214405520034405440693089B002B05DD49461A466E
S214405530204601F017FA8146069B002B05DD4146C2
S2144055401A46204601F00EFA80460E9B002B40F08D
S21440555086800A9B002B40F366820B9B002B00F054
S2144055609880002D05DD31462A46204601F0FAF99E
S21440557006460C9B002B40F0378306960A9B049AFF
S214405580DDF818B0013BD3180B930AF001030C93D7
S2144055901746C24651464846FFF7A6FC31460546E2
S2144055A0484601F031FA5A460A905146204601F0E4
S2144055B047FAC268804605F13003002A40F02B8245
S2144055C001464846089301F01FFA41460690204699
S2144055D001F042F8069A089B32B9249921B90C9AF0
S2144055E0002A00F0EF83249A0A990029C0F29F828D
S2144055F005D1249919B90C99002900F09882002AFF
S21440560000F306830B9A3B7007F101089742454624
S21440561000F00C83494600230A22204601F026F873
S2144056205E45814631464FF000034FF00A02204661
S21440563000F0EB8101F01AF85946064600230A228C
S214405640204601F013F847468346A3E71C20089BF4
S21440565003440893069B03440544069363E7414688
S214405660484601F0D1F90028BFF673AF029F49467D
S21440567000230A222046013F029700F0F7FF0B9BCB
S2144056808146002B40F0B6830F9B002B40F3BF8330
S2144056900A93DDF810B00A9F5D4602E000F0E6FF90
S2144056A0814641464846FFF71FFC00F1300A05F8A0
S2144056B001ABA5EB0B03BB424FF00A024FF00003D1
S2144056C049462046EADB049B0A9A012AACBF9B184F
S2144056D001331D464FF0000B49460122204601F09B
S2144056E041F94146814601F08FF9002840F33D825A
S2144056F015F8012C04996B1E04E08B4200F0AE8135
S21440570013F8012D392A03F10105F6D001321A703B
S2144057104146204600F0A0FF002E3FF43DAEBBF1D0
S214405720000F05D0B34503D05946204600F094FFFD
S2144057303146204600F090FF2EE600230B93029B56
S214405740259A13440F930133012B1F461E460A9396
S214405750B8BF01270021172F61640AD9012204230C
S2144057605B0003F114008742114602F10102F7D2B2
S2144057706164204600F04AFF0E2E049020643FF6F7
S21440578041AD002D3FF43EAD02990029CDE910AB66
S21440579040F30282B84B01F00F020D1103EBC20337
S2144057A0E906D3E9006740F1AE81B44B504659460E
S2144057B0D3E90823FDF786FFCDE9120105F00F0572
S2144057C04FF0030A8DB1DFF8B482EA0709D53046B8
S2144057D03946D8E90023FDF74BFE0AF1010A064692
S2144057E00F466D1008F10808EFD13B463246DDE91A
S2144057F01201FDF767FF074688460E9B43B100221D
S2144058009F4B3846414601F05DFF002840F08682B7
S2144058105046FDF7C7FD3A464346FDF729FE994BED
S2144058200022FDF773FC0A9B0546A1F15076002B3B
S21440583000F03E81029B15930A9B12930B9B002B14
S21440584000F0FA81129A8C4B8F4903EBC20353E95E
S21440585002230020FDF736FF2A463346FDF754FC68
S21440586082468B463846414601F06AFF0546FDF7BC
S21440587099FD02460B4638464146FDF745FC303515
S2144058805FFA85F8049D06460F4685F80080024676
S2144058900B4650465946013501F032FF002854D198
S2144058A032463B4600207649FDF72EFC02460B4624
S2144058B05046594601F024FF002840F07082129A64
S2144058C0012A00F01181129B049ACDF848901344A7
